:40000000021B87020009222222323202000AE4F5A975AAFF75AB0375801F2202002EE4F5FA75F91843F90443E8022202002F32323232320200303200000000020031000068
:4000400000000002003200000000000200360000000000020BA1EC4D6011E8497017ED33EC3304600DE4FCFFFEFD22E933E8330470F802031F1202EA58046009E4CC248179
:400080005006285009020329284003020326C0E0EB4A7044B98006D0E0FB020315EF4E701CBD8008EBFFEAFEE9FD80EBE98DF0A4FEE5F002013FE9CDF9EAFEEBFFEF89F0DF
:4000C000A4FCE5F0CE89F0A42EFFE435F0CD89F0A42DFEE435F08067EF4E7005BD80D780C3EF8BF0A4ACF0EE8BF0A42CFCE435F0F8EF8AF0A42CE5F038FCE433CB8DF0A437
:400100002CFCE5F03BF8EE8AF0A42CFCE5F038F8E433CF89F0A42CFCE5F038CF3400CE89F0A42FFFE5F03EFEE433C98DF0A42EFEE5F039CD8AF0A42FFFE5F03EFEE43DFD6E
:4001400033D0E0FB50070BBB000F020329EC2CFCEF33FFEE33FEED33FD020301020329EC5D046005E85904700302031F1202EA580460F6EC4860F2EC7004FDFEFF22C8603A
:40018000DB2481C85009C398600250060203269850CAF582E9294B4A7005AB8202031575F0007C1A7880C3EF9BEE9AED99400DC3EF9BFFEE9AFEED99FDE842F0DC23ACF02F
:4001C000D0E0FFD0E0FED0E0FDAB8220E7101BEB60BAEC2CFCEF33FFEE33FEED33FD020301E803F830E705C0F075F000EF2FFFEE33FEED33FD40B830E7C280AA74F8CC6416
:4002000080CCC86480C8F58204604FC3EB9FF5F0EA9E42F0E99D42F0E89C45F0603C501DE5825FFFE582D313CB5BCBF42B5582FB50280ABA002409B9002008801DE5825BD1
:40024000FBE582D313CF5FCFF4C3132F5582FF50090EBE00050DBD00010CC3EB9FF5F0EA9E42F0E99D42F0E89C45F06007CC4820E701B3EC2275F020800E75F01080057546
:40028000F0087D007E007F003392D530D5031204DDEC334010EF33FFEE33FEED33FDEC33FCD5F0ED22E5F0247EA2D513CC92E7CDCEFF22EDD2E7CD33EC3392D52481400663
:4002C000E4FFFEFDFC22FCE4CFCECDCC24E0501174FF80EDC3CC13CCCD13CDCE13CECF13CF0470F030D5DE0204DDE9D2E7C933E833F892D5EDD2E7CD33EC33FC5002B2D550
:4003000022EC30E7100FBF000C0EBE00080DBD00040BEB6014A2D5EB13FCED92E7FD2274FFFCFDFEFF22E480F8A2D574FF13FC7D80E480EFE709F608DFFA8046E709F20805
:40034000DFFA803E88828C83E709F0A3DFFA8032E309F608DFFA8078E309F208DFFA807088828C83E309F0A3DFFA806489828A83E0A3F608DFFA805889828A83E0A3F20821
:40038000DFFA804C80D280FA80C680D4806980F28033801080A680EA809A80A880DA80E280CA803389828A83ECFAE493A3C8C582C8CCC583CCF0A3C8C582C8CCC583CCDF11
:4003C000E9DEE7800D89828A83E493A3F608DFF9ECFAA9F0EDFB2289828A83ECFAE0A3C8C582C8CCC583CCF0A3C8C582C8CCC583CCDFEADEE880DB89828A83E493A3F20899
:40040000DFF980CC88F0EF60010E4E60C388F0ED2402B4040050B9F582EB2402B4040050AF232345822390038473EF8DF0A4A8F0CF8CF0A428CE8DF0A42EFE22BC000BBE8B
:400440000029EF8DF084FFADF022E4CCF875F008EF2FFFEE33FEEC33FCEE9DEC984005FCEE9DFE0FD5F0E9E4CEFD22EDF8F5F0EE8420D21CFEADF075F008EF2FFFED33FD46
:400480004007985006D5F0F222C398FD0FD5F0EA22C2D5EC30E709B2D5E4C39DFDE49CFCEE30E715B2D5E4C39FFFE49EFE12043CC3E49DFDE49CFC800312043C30D507C3F6
:4004C000E49FFFE49EFE22C5F0F8A3E028F0C5F0F8E582158270021583E038F022C3E49FFFE49EFEE49DFDE49CFC22ECF0A3EDF0A3EEF0A3EFF022A8828583F0D083D08288
:4005000012050E12050E12050E12050EE473E493A3C583C5F0C583C8C582C8F0A3C583C5F0C583C8C582C822A42582F582E5F03583F58322EF4E6012EF60010EEDBB010B1F
:4005400089828A83F0A3DFFCDEFA2289F05007F709DFFCA9F022BBFEFCF309DFFCA9F02275F008758200EF2FFFEE33FECD33CDCC33CCC58233C5829BED9AEC99E58298406F
:400580000CF582EE9BFEED9AFDEC99FC0FD5F0D6E4CEFBE4CDFAE4CCF9A88222B800C1B90059BA002DEC8BF084CFCECDFCE5F0CBF97818EF2FFFEE33FEED33FDEC33FCEBEA
:4005C00033FB10D703994004EB99FB0FD8E5E4F9FA227818EF2FFFEE33FEED33FDEC33FCC933C910D7059BE99A4007EC9BFCE99AF90FD8E0E4C9FAE4CCFB2275F010EF2FDB
:40060000FFEE33FEED33FDCC33CCC833C810D7079BEC9AE899400AED9BFDEC9AFCE899F80FD5F0DAE4CDFBE4CCFAE4C8F922E50875F040A42411F582E43402F583E50975F5
:40064000F00202052875F040E0FEA3E0FFE508A422900300E0FCA3E0FDE50875F040A4222425F582E43402F583E582251BF582E43583F58322E0FEA3E0FFE50925E024112C
:40068000F582E43402F58322E51CC454F02472F582E43402F58375F002E51B120528E4F0A3F0222421F582E43402F583E0FAA3E0C39DEC6480F8EA64809822F583E4F0E5AC
:4006C0001C75F040A422E0FEA3E0FF9002BAE0FCA3E0FDC3EF9D222423F582E43402F5832275F01EA424BCF582E4340222E50825E024F8F582E43402F58322F583EE8FF0B0
:400700000204C72421F582E43402F583222430F582E43402F583222401F582E434022224F1F582E4340122E51B25E02472F582E4340222E51B25E02482F582E4340222E0D2
:40074000FEA3E0FF9003D6E02FF09003D5E03EF0051B222424F582E4340222E0FEA3E0FFC3E49FFFE49EFE22E0FCE412027FE4FBFA79C8784202015F242DF582E43402220A
:40078000C454F02492F582E43402229002BAEEF0A3EFF022EC6480F8EE64809822E0FCA3E0FDEC2290031CE0FF900271E022242EF582E4340222242FF582E4340222E0FEC0
:4007C000A3E0FF7C0022F583E0FEA3E0229002B9E0FF9002B7E022900306E0FFE509C39F22E075F002A42400F582E5F03400F58322900263E0FCA3E0FDEC220000000000F7
:40080000E49003D5F0900307E0FF9003D6E4F0A3EFF012065912071712063BE0FEA3E0D394E0EE942E401012065912071712063B742EF0A374E0F012065912071F12063B3F
:4008400012064512071712063BE0FCA3E0C39FFFEC9EAD07FC900311E0B4011EE508701AD374FC9DEC6480F874FF648098500BC3EC648094805003E4FCFDC3EC6480948060
:40088000500D9003D57401F0C3E49DFDE49CFCAB05AA04EAF5BBEBF5BA12065912071F12063B12079DF5BDEDF5BC43B90C43B901E5B930E7FB53B971AFB5EFFEADB47C005D
:4008C000E42DFFEC3EFE12062EEEF0A3EFF09003D5E06401700E12062E12075B12062EEEF0A3EFF090031BE064017046E51130E1047F0180027F00EF7038E5086018120646
:4009000030C083C0821206751206CEFFEE9CD082D083F0A3EFF012062EC083C082E0FEA3E0FFE50812078012063B1206CEFFEE9C21FFE5087002410712067AE0FEA3E0FFC3
:40094000C39003D7E09FEE6480F89003D6E0648098503F12062EC083C082E0FEA3E0FFC006C007900308120768C004C005C006C00712067A12079D12027AD003D002D00177
:40098000D0001200561202B3C3D0E09FFFD0E09E21FF9003D612075B12067AE0FCA3E0C39FEE6480F8EC648098E50875F040503F120633C083C082E0FEA3E0FFC006C00779
:4009C000900309120768C004C005C006C00712067A12079D12027AD003D002D001D0001200561202B3C3D0E09FFFD0E09E8010120633C083C0821206751206CEFFEE9CD0EE
:400A000082D083F0A3EFF02290031EE064AA6002611B1213EC6002611B90031F1213569003211213D6900321E0540F900303F09003221213BB900322E05407900305F090EB
:400A40000323E0900307F0900324E0900308F0900325E0900309F0900326E030E0047F0180027F009003131213F330E1047F0180027F009003121213F330E2047F01800249
:400A80007F009003111213F330E3047F0180027F00900310EFF0900327E0540F90030AF0900328E090030BF0900329E090030CF090032AE0FEA3E090030D12135D90032C04
:400AC000E0547F90030FF0900326E030E4047F0180027F00900314EFF090032D12137390032FE0900317F090033012139C900332E090031AF0900333E030E7047F018002DC
:400B00007F0090031BEFF0900333E0540390031DF0900334E090031CF08077900300E4F0A3740CF0A37403F0A3F0A37401F0A37403F09003077408F0A37464F0A3F0E4902E
:400B40000313F090031204F0E4900311F0900310F090030A7403F0A37421F0A37410F0A3E4F0A3740CF0A3741EF0E4900314F0A3F0A37414F0A37496F0A3E4F0A37403F092
:400B8000A3740FF0A37401F090031DF090031C7420F0900305E0FF900304E02F900306F022C0E0C0F0C083C082C0D075D000C000C001C002C003C004C005C006C007E5E4ED
:400BC00030E455E5E420E102A11485E31A751701E51AB4151A248C1217B5E0F5E3748D251AF582E43403F583E09003B4F0A114E51AB416059003B4801AE51AC3942850053C
:400C00001217B1800EE51AC394805002A1141217BDF583E0F5E3A114E5E430E229E517B40105751700801BE51AC3942850051217EE800AE51AC3948040081217BDF583E0F3
:400C4000F5E3051AA114E5E420E102A114E51AC3940F50051217EEA10D741AD3951A5027E51A942150211217B1E5E3F0E51A641C6002A1121217B1E0D394F05002A11212CE
:400C800017B174F0F0A112E51A640F70591217B1E5E3F0E51130E0047F0080027F01EF6401703B1217B1E0F5104311011217E7E51020E20C20E40920E30620E50330E705AD
:400CC000751208804DE51030E0057512028043E51030E10575120480391217E480341217B1E510F0802CE51AB47E0590038B801FE51AB47F0B90038AE5E3F01218D6801230
:400D0000E51AC39480400B7518011217BDF583E5E3F0051A75E2C0D007D006D005D004D003D002D001D000D0D0D082D083D0F0D0E0329001E0E0F8A3E0F9A3E0FAA3E0FB75
:400D4000900223E0FEA3E0FFEE3395E0FDFCEB2FFFEA3EFEE93DFDE83CFC9001E01204EB9001EBE004F0C3940A5002C129E0FBE4FAF9F89001E0E0FCA3E0FDA3E0FEA3E073
:400D8000FF121FF39001EFEEF0A3EFF0E49001EBF09001E01204F7000000009001EEE0D394004003E014F0900317E0FF9001ECE0C39F403BA31207E1E0FCA3E0FDC3900165
:400DC000F0E09DFD9001EFE09CFCC3648094805007C3E49DFDE49CFCD3900316E09D900315E09C501090031AE09001EEF080069001ECE004F09001EFE0FCA3E0FD9001ED18
:400E00001207E1ECF0A3EDF09001EDE004F0C39F4002E4F09001EEE09001E4F09001EF1207F49001E5F0EDA3F01207F19001E7F0EDA3F09001EEE0D394004026900263E068
:400E4000FEA3E0FFD39400EE648094804014900318E0FCA3E0FDEF9DFFEE9C900263F0A3EFF01207F19001E9F0EDA3F02212121490031E74AAF09003777455F0900300E08B
:400E800090031FF0900300A3E09003201213AD900321121386900322F0900307E0900323F0900308E0900324F0900309E0900325F0900313E0B401047F0180027F00900338
:400EC00026EFF0E0FF900312E0B401047E0280027E001213CFE0FF900311E0B401047E0480027E001213CFE0FF900310E0B401047E0880027E001213CF90030AE0540F90C5
:400F00000327F090030BE0900328F090030CE0900329F090030DE090032AF090030DA3E090032BF090030FE0547F90032CF0900326E0FF900314E0B401047E1080027E00DB
:400F40001213CF900315E090032DF0900315A3E090032EF0900317E090032FF0900318E0900330F0900318A3E0900331F090031AE0900332F090031BE0B401047F80800203
:400F80007F009003331213FA900333F090031CE0900334F022E510540CFFBF0C067512015310F3E51030E2031222C0E51030E403122250E51030E303122238E51030E5039A
:400FC000121FADE51030E707C2821221D9D282E51264016017E51030E005751202800DE51030E1057512048003E4F512E51270031217E4E4F51090039BE510F022000000D0
:40100000900300E090038DF0900300A3E090038E1213AD90038F121386900390F0900307E0900391F0900308E0900392F0900309E0900393F0900313E0B401047F01800253
:401040007F00900394EFF0E0FF900312E0B401047E0280027E001213C8E0FF900311E0B401047E0480027E001213C8E0FF900310E0B401047E0880027E001213C890030AAB
:40108000E0900395F090030BE0900396F090030CE0900397F090030DE0900398F090030DA3E0900399F090030FE0547F90039AF0900394E0FF900314E0B401047E10800266
:4010C0007E001213C8900315E09003A6F0900315A3E09003A7F0900317E09003A8F0900318E09003A9F0900318A3E09003AAF090031AE09003ABF090031BE0B401047F80B7
:4011000080027F009003AC1213FA9003ACF090031CE09003ADF0227F647E0012228C12000E1220371215E81222AD121800122200EF60FAE5126401600BE51264026005E591
:4011400012B404024101122220121800120800E5086003121C97E50B700F1219A2E50860051216D18003121E46E50A6002410CE50B6002410CD3E5169400E51594004008BF
:40118000E516151670021515121F0B90031BE0B40111E51130E1047F0180027F00EF70031214FEE51130E1047F0180027F00EF6028900313E0B4012190026DE07018900372
:4011C0000CE0FF0513E513C39F400EE4F5137514017512028003E4F513E5126408702DE5C830E7FB53C87C43F90453F9F7120F95E5126401600BE51264026005E512B4040F
:4012000005121214212443F908121800850A08850B09212D90038D12135690038F1213D690038FE0540F900303F09003901213BB900390E05407900305F0900391E090031D
:4012400007F0900392E0900308F0900393E0900309F0900394E030E0047F0180027F0090031312140430E1047F0180027F0090031212140430E2047F0180027F0090031149
:4012800012140430E3047F0180027F00900310EFF0900395E090030AF0900396E090030BF0900397E090030CF0900398E0FEA3E090030D12137A90039AE090030FF0900328
:4012C00094E030E4047F0180027F00900314EFF09003A61213739003A8E0900317F09003A912139C9003ABE090031AF09003ACE030E7047F0180027F0090031BEFF0900342
:40130000ACE0540390031DF09003ADE090031CF02290033574A5F0900376745AF078367C037D017B017A0379B57E007F2012040478567C037D017B017A0179F17E007F106F
:4013400012040478667C037A0279317D017B017E007F10020404E0FEA3E09003007C002400FFEC3EF0A3EFF0227E037F1E7B5AE4FDFC22E0FEA3E09003157C002400FFECE8
:401380003EF0A3EFF022540F4FF0900304E0540733333354F8FFA3E054074F22E0FEA3E02400FFEC3E900318F0A3EFF022F0900302E0540FC454F0FFA3E022E054381313C1
:4013C00013541F900304F022EF4E900394F022EF4E900326F022E054F0C4540F900302F022F583E4F09002FFE004F022900377E0645522EFF0900326E022EFF090031DE0AD
:4014000054034F22EFF0900394E022E50870069002B7E004F01207CD6F7055E50860221206E1F583C083C0829002B6E0D082D08312063F1206C612079440069002B8E014AA
:40144000F01206EDC083C08275F01E1206481206E5F583C083C0829002B6E0D082D08312063F1206CEFFEE9CD082D083F0A3EFF01206591206D7E0FEA3E0FFE5081206E1C5
:40148000F583C083C0829002B6E0FDD082D08312063FEEF0A3EFF01206591206D7E0FEA3E0FF1206ED1206FDE508601A1206E1F58375F002ED1205281206C6120794400698
:4014C0009002B8E004F01207CDFEC39F400E1206ED120654120703ECF0A3EDF0E508B4011CEEC39F40069002B7E014F09002B9E0FF9002B6E004F0C39F4002E4F02290025E
:401500006DE06401701B900271F0F51CE4F51B120688051BE51BB408F6051CE51CB402EC22900271E004F0E4F51BE51B12067CE0FEA3E0FF1207271206FBE51B25E0245192
:40154000F582E434021207C6FF1207331206FB1207A4FDC39F407D120727F583C083C0821207BE120491D082D083EEF0A3EFF0120733F583C083C082E0FEA31207A7FD7C01
:4015800000120491D082D083EEF0A3EFF01207271207C6FF90031DE0FDEFA805088006CEA2E713CE13D8F8FFE51B25E01207831206FB1207331207C6A805088006CEA2E71F
:4015C00013CE13D8F8FFE51B25E024A2F582E434021206FB051BE51B64086002A12A1207A4C39F4002E4F0227511011221D2E4F5A8F5E812000612000712000812001E1232
:401600002279D2AF1222B7E512B40406120A08121000E51264016009E51264026003121EAEE51130E1047F0180027F00EF7013121AF0121DDEE490039DF0A3F0A3F0A3F061
:4016400080031221B112207A90030FE090039AF0E5126401700612229E1221B1E4F5125311FE1221D2E514B4012B431104E511F0E4F514900344E090039DF0900345E090BB
:40168000039EF0900354E090039FF0900355E09003A0F080065311FB1221D2121D7690039DE07004A3E0601390039FE07004A3E0600990030FE030E702800EE51130E20415
:4016C0007F0180027F00BF0104E4F51D22751D0222E4FF900313E064017029E51130E2047E0180027E00EE700C1206511206A3401D7F01801990030D1206541206A3400ECC
:401700007F01800A1206511206A340027F01900312E0B40113EFB4010F9002B9E0FE9002B8E0C39E5002E4FFEF64017036120659120778F5837401F012065912070DE07010
:40174000201206591207AEF583E004FFF0900302E0FEEFD39E405912065912070D74018014804312065912070DE07012120659120778F583E4F01206591207AE802E1206B2
:40178000591207B6F583E004FFF0900303E0FEEFD39E401C120659120778F583E4F012065912070DE4F01206591207B6F583E4F022748C251AF582E43403F58322E51A2491
:4017C00080FFE434FFFE900388E0FCA3E02FF582EC3E2290038BE0C454F02290038BE075F040A4225311FE90039CE511F022748C251AF582E43403221213690220F000002C
:40180000E50A602224FE600F1460111460132403701775C102801275C101800D75C108800875C110800375C104E50BB41000400201C190183825E0730158016001680170F1
:4018400001780180018801900198019D01A201A701AC01B101B601BB75CDFF75CCFF806175CDFF75CCFE805975CDFF75CCFC805175CDFF75CCF8804975CDFF75CCF0804180
:4018800075CDFF75CCE0803975CDFF75CCC0803175CDFF75CC80802975CDFF802175CDFE801C75CDFC801775CDF8801275CDF0800D75CDE0800875CDC0800375CD80E4F587
:4018C000CCE50A121F76121F6AE0FEA3E0F5CEEEF5CF43C80F2290038AE0FF247C607214607B2484B41000400221949018F525E0500205837321152121212D2151215D2153
:4019000069217E21392145219421942194219421942194218A9003887402F0A374B2F021941217DB2401F582E4340280461217DB24F1F582E43401803A1217DB2411F58274
:40194000E43402802E1217D32492F582E4340280221217D32436F582E4340380161217D32456F582E43403800A1217D324B5F582E43403AD82900388F0A3EDF08016900360
:40198000887401F0A374E4F0800A9003887403F0A37478F0EFC39480400475180122E4F51822E49003D5F0A3F0E5086058900304E0F51B900306E0FFE51BC39F501D12069D
:4019C0005912067EC083C082120659120660E0D082D08312063F12073F80D8900305E0FD7C009003D5E0FEA3E0FF1204911206591206D7EEF0A3EFF0900314E0640170344E
:401A0000120D32802FE4F51B12065912067E75F002E51B12052812073FE51BB408EA9003D51207BE7D081204911206591206D7EEF0A3EFF0900312E0B4010302140B120666
:401A4000591206D7120645120703EEF0A3EFF022E4F50AE4F50BE50A121F76121F6AE4F0A3744BF09003D51204F700000000E4F51E121800E5C830E7FB53C87D121F811254
:401A80001F5DEEF0A3EFF09003D5E0F8A3E0F9A3E0FAA3E0FB121F5DE0FEA3E0FFE4FDEB2FFFEA3EFEED39FDEC38FC9003D51204EB051EE51EC3940540B7E47B05FAF9F811
:401AC0009003D5E0FCA3E0FDA3E0FEA3E0FF121FF3121F5DEEF0A3EFF0050BE50BC3940850024156050AE50AC394025002415322121A50E4F51CE4F51BE51C121F93E51B3C
:401B0000120528E0FCA3E0FDE412027A121FA4AB0FAA0EA90DA80C7F007E407D1C7C4612015F121FA4E4FBFA79967842120056121FA47F007EFF7D7F7C47AB0FAA0EA90D46
:401B4000A80C1201FC600E400C750F00750EFF750D7F750C47AF0FAE0EAD0DAC0C1202B3121F74F58375F002E51B120528EEF0A3EFF0051BE51B6408600241F9051CE51CF9
:401B80006402600241F622787FE4F6D8FD75811F021BCE021117E493A3F8E493A34003F68001F208DFF48029E493A3F85407240CC8C333C4540F4420C8834004F456800198
:401BC00046F6DFE4800B0102040810204080902265E47E019360BCA3FF543F30E509541FFEE493A360010ECF54C025E060A840B8E493A3FAE493A3F8E493A3C8C582C8CA1D
:401C0000C583CAF0A3C8C582C8CAC583CADFE9DEE780BE7515017516F4E49002FCF0A3F0A3F0900271F0F51CE4F51B1206BF120717F583E51B12063FE4F0A31206BE1207BB
:401C40001F1206941206BF120660E4F0120688E51C120780120694051BE51B640870CC1206BF1207AE1206BB1207B61206BB1207781206BB2430F582E434021206BB120780
:401C800003E4F0A31206BE1206D7E4F0A3F0051CE51C64027092221207D7501C1206592425F582E43402F583E582250912066DE509F06055AF09A1061207D7404C120659BA
:401CC00012067EC083C082120659120753F583E5822F12066DE0D082D08312063FE0FEA3E0FF12062E1206CE120794501C900306E0FF120659120753F583E5822F12066DF0
:401D0000E509F0EF14FF121D0A228F1BE51BC39401406212065912067EC083C082120659120753120667E0D082D08312063F12064512067EC083C082120659120660E0FDC2
:401D4000D082D08312063FE0FAA3E0D39FEE1206B34022120659120753120667E0FF120659120660EFF0120659120753120667EDF0151BA10C22E49002B6F0A3F0A3F0F50B
:401D80001CE51C1206EFE4F0A3F0F51BE51C1206E1120694051BE51BB40FF1051CE51CB402DF90030AE09002B9F0E51130E2047F0180027F00EF7005900300800390030DF8
:401DC000E0FEA3E0FF12078B90030BE0FD7C0012042A12078B7D6412049112078B221222AD121800122200EF60FA12065912071712063B12064512071F12063B1206FD90AD
:401E000003D5E0B4041E12065912071F12063BC083C0821207BE7D0512043CD082D083EEF0A3EFF0122220E50A700FE50B700B9003D5E004F0C39405500B121800850A0802
:401E4000850B09A1E422900221E0FEA3E0FFC3EE648094805003120760D3EF94CCEE64809480403CD3EF9499EE6480948140179002FEE004F0D394034011900310E0B40192
:401E80000A7512028005E49002FEF09002FDE004F0D3940340177403F09002FC74C8F022E49002FDF09002FCE0600214F0225311FD90039CE511F090031EE064AA704B1204
:401EC00013EC7046900335E064A5703E900376E0645A703643110290039CE511F078B57C037D017B017A0379367E007F2012040478F17C017A03795612134B78317C027DC7
:401F0000017B017A03796612134F22531DFE900270E0B40103431D01E51DD3940040028001D3928090026112079D9003A1F0EDA3F0A3E51DF0E4F51C1206BF120703E0FE10
:401F4000A3E0FFE51C25E024B2F582E43402F583EEF0A3EFF0051CE51CB402DC22E50A75F040A42401F582E43402F583E50B75F002020528E51CC454F024B5F582E4340364
:401F80002243F904AFD6EFFEADD57C00E42DFFEC3EFE2275F040A42401F582E43402F58375F002228F0F8E0E8D0D8C0C22E4900335F0900376F09002FFF09002FFE0FFC31E
:401FC0009420500D74362FF582E434031213E180E9E49002FFF09002FFE0FFC39420500D74562FF582E434031213E180E91213690220BBC2D5E830E70FB2D5E4C39BFBE49B
:402000009AFAE499F9E498F8EC30E717B2D512202912059CE4C39BFBE49AFAE499F9E498F8800312059C30D50DE4C39FFFE49EFEE49DFDE49CFC22E4F51E748C251EF582FA
:40204000E43403F583E4F0051EE51EB428EC1217F8120A08121000E49003A4F0A37435F0E4F51090039BE510F0751101A3E511F0E4F512F514F513F518229003D3E0FEA33F
:40208000E0FFC39003C4E09FFF9003C3E09EFEC3648094805007C3E49FFFE49EFE90030FE0FD547FFCFBD3EF9B7480F86E985005ED4480F02290030FECF0229003D5EEF06A
:4020C000A3EFF09003D5A3E0F5CA9003D512213AC333CE33CED8F9122148CEC313CE13D8F912212243CD2075D101E5D130E2FB229003D5EEF0A3EFF09003D5A3E0F5CA90C5
:4021000003D512213AC333CE33CED8F9122148CEC313CE13D8F912212275D102E5D130E2FB22F5CCEB14FF5407C43354E042CCEF54F8131313541FF5CD22E05403A3F5CBB9
:402140007E00ED543F78022242CBEC5407FEED54C0780622E49001EBF0A3F0A3F0A3F0A3F0A3F09001E01204F700000000E4F51F74E4251FF582E43401F583E4F0051FE5AC
:402180001FB407EC22E4F51CE4F51B121F74F583E51B121F6EE4F0A3F0051BE51BB408EB051CE51CB402E1E4F5C343F50843C304229003C3E0FCA3E0FDEC90039DF0EDA355
:4021C000F09003D3E0FCA3E0FDEC90039FF0EDA3F02290039CE511F022121214120E70900336E0FFF46013EF7004A3E0600C90033574A5F0900376745AF01213690220BB1A
:40220000E5C820E7037F002253C87C121F81E508121F93E509120528EEF0A3EFF07F0122050AE50AC39402400EE4F50A050BE50B94084003E4F50B2290031EE0B4AA0512AA
:4022400013EC6003120E6D1213111213690220BB7E007F5A7D007B017A03791E1205341213690220BB50037850524F582053554D2056302E353320200075E1B475E29043DB
:40228000A84043B84043E80443F80422E4FDFCC3ED9FEC9E50070DBD00010C80F222121214120E701213111213690220BBE4F50AF50BF508F50922122185121C130221541A
:4022C000120E6D1213690220BB00000000000000000000000000000000000000000000000000000000000000000000000000000000000000000000000000000000000000E6
:404000000035008C000000000000000000000000000000000000000000000000000000000000000000000000000000000000000000000000000000000000000000000000BF
:00000001FF
