:4000000002148B020009222222323202000AE4F5A975AAFF75AB0375801F2202002EE4F5FA75F91843F90443E8022202002F3232323232020030320000000002003100006B
:400040000000000200320000000000020036000000000002096EEC4D6011E8497017ED33EC3304600DE4FCFFFEFD22E933E8330470F802031F1202EA58046009E4CC2481AE
:400080005006285009020329284003020326C0E0EB4A7044B98006D0E0FB020315EF4E701CBD8008EBFFEAFEE9FD80EBE98DF0A4FEE5F002013FE9CDF9EAFEEBFFEF89F0DF
:4000C000A4FCE5F0CE89F0A42EFFE435F0CD89F0A42DFEE435F08067EF4E7005BD80D780C3EF8BF0A4ACF0EE8BF0A42CFCE435F0F8EF8AF0A42CE5F038FCE433CB8DF0A437
:400100002CFCE5F03BF8EE8AF0A42CFCE5F038F8E433CF89F0A42CFCE5F038CF3400CE89F0A42FFFE5F03EFEE433C98DF0A42EFEE5F039CD8AF0A42FFFE5F03EFEE43DFD6E
:4001400033D0E0FB50070BBB000F020329EC2CFCEF33FFEE33FEED33FD020301020329EC5D046005E85904700302031F1202EA580460F6EC4860F2EC7004FDFEFF22C8603A
:40018000DB2481C85009C398600250060203269850CAF582E9294B4A7005AB8202031575F0007C1A7880C3EF9BEE9AED99400DC3EF9BFFEE9AFEED99FDE842F0DC23ACF02F
:4001C000D0E0FFD0E0FED0E0FDAB8220E7101BEB60BAEC2CFCEF33FFEE33FEED33FD020301E803F830E705C0F075F000EF2FFFEE33FEED33FD40B830E7C280AA74F8CC6416
:4002000080CCC86480C8F58204604FC3EB9FF5F0EA9E42F0E99D42F0E89C45F0603C501DE5825FFFE582D313CB5BCBF42B5582FB50280ABA002409B9002008801DE5825BD1
:40024000FBE582D313CF5FCFF4C3132F5582FF50090EBE00050DBD00010CC3EB9FF5F0EA9E42F0E99D42F0E89C45F06007CC4820E701B3EC2275F020800E75F01080057546
:40028000F0087D007E007F003392D530D5031204DDEC334010EF33FFEE33FEED33FDEC33FCD5F0ED22E5F0247EA2D513CC92E7CDCEFF22EDD2E7CD33EC3392D52481400663
:4002C000E4FFFEFDFC22FCE4CFCECDCC24E0501174FF80EDC3CC13CCCD13CDCE13CECF13CF0470F030D5DE0204DDE9D2E7C933E833F892D5EDD2E7CD33EC33FC5002B2D550
:4003000022EC30E7100FBF000C0EBE00080DBD00040BEB6014A2D5EB13FCED92E7FD2274FFFCFDFEFF22E480F8A2D574FF13FC7D80E480EFE709F608DFFA8046E709F20805
:40034000DFFA803E88828C83E709F0A3DFFA8032E309F608DFFA8078E309F208DFFA807088828C83E309F0A3DFFA806489828A83E0A3F608DFFA805889828A83E0A3F20821
:40038000DFFA804C80D280FA80C680D4806980F28033801080A680EA809A80A880DA80E280CA803389828A83ECFAE493A3C8C582C8CCC583CCF0A3C8C582C8CCC583CCDF11
:4003C000E9DEE7800D89828A83E493A3F608DFF9ECFAA9F0EDFB2289828A83ECFAE0A3C8C582C8CCC583CCF0A3C8C582C8CCC583CCDFEADEE880DB89828A83E493A3F20899
:40040000DFF980CC88F0EF60010E4E60C388F0ED2402B4040050B9F582EB2402B4040050AF232345822390038473EF8DF0A4A8F0CF8CF0A428CE8DF0A42EFE22BC000BBE8B
:400440000029EF8DF084FFADF022E4CCF875F008EF2FFFEE33FEEC33FCEE9DEC984005FCEE9DFE0FD5F0E9E4CEFD22EDF8F5F0EE8420D21CFEADF075F008EF2FFFED33FD46
:400480004007985006D5F0F222C398FD0FD5F0EA22C2D5EC30E709B2D5E4C39DFDE49CFCEE30E715B2D5E4C39FFFE49EFE12043CC3E49DFDE49CFC800312043C30D507C3F6
:4004C000E49FFFE49EFE22C5F0F8A3E028F0C5F0F8E582158270021583E038F022C3E49FFFE49EFEE49DFDE49CFC22ECF0A3EDF0A3EEF0A3EFF022A8828583F0D083D08288
:4005000012050E12050E12050E12050EE473E493A3C583C5F0C583C8C582C8F0A3C583C5F0C583C8C582C822A42582F582E5F03583F58322EF4E6012EF60010EEDBB010B1F
:4005400089828A83F0A3DFFCDEFA2289F05007F709DFFCA9F022BBFEFCF309DFFCA9F02275F008758200EF2FFFEE33FECD33CDCC33CCC58233C5829BED9AEC99E58298406F
:400580000CF582EE9BFEED9AFDEC99FC0FD5F0D6E4CEFBE4CDFAE4CCF9A88222B800C1B90059BA002DEC8BF084CFCECDFCE5F0CBF97818EF2FFFEE33FEED33FDEC33FCEBEA
:4005C00033FB10D703994004EB99FB0FD8E5E4F9FA227818EF2FFFEE33FEED33FDEC33FCC933C910D7059BE99A4007EC9BFCE99AF90FD8E0E4C9FAE4CCFB2275F010EF2FDB
:40060000FFEE33FEED33FDCC33CCC833C810D7079BEC9AE899400AED9BFDEC9AFCE899F80FD5F0DAE4CDFBE4CCFAE4C8F922E4900191F09000D5E0FF900192E4F0A3EFF019
:400640001208351208D5120823E0FEA3E0D394E0EE942E40101208351208D5120823742EF0A374E0F01208351208DD1208001208D5120823E0FCA3E0C39FFFEC9EAD07FCDD
:400680009000DFE0B40115E5087011EDF47002ECF46006BCFF06BDFE03E4FCFDC3EC64809480500D9001917401F0C3E49DFDE49CFCAB05AA04EAF5BBEBF5BA12083512087B
:4006C000DD120823120937F5BDEDF5BC43B90C43B901E5B930E7FB53B971AFB5EFFEADB47C00E42DFFEC3EFE120816EEF0A3EFF0900191E06401700E1208161209091208C3
:4007000016EEF0A3EFF0E5087002E1DD120851E0FEA3E0FFC3900193E09FEE6480F8900192E0648098503F120816C083C082E0FEA3E0FFC006C0079000D6120916C004C060
:4007400005C006C00712085112093712027AD003D002D001D0001200561202B3C3D0E09FFFD0E09EE1D5900192120909120851E0FCA3E0C39FEE6480F8EC648098E508750B
:40078000F040503F12081BC083C082E0FEA3E0FFC006C0079000D7120916C004C005C006C00712085112093712027AD003D002D001D0001200561202B3C3D0E09FFFD0E0A4
:4007C0009E801212081BC083C082E0FEA3E0FF12085112094ED082D083F0A3EFF022E5C820E7037F002253C87C1219E9E5081219FBE509120528EEF0A3EFF07F012200005D
:40080000F58375F002E50912052875F040E0FEA3E0FFE508A422E50875F040A42420F582E43400F583E50975F0020205289000CEE0FCA3E0FDE50875F040A4222434F5820E
:40084000E43400F583E5822517F582E43583F58322E50925E02420F582E43400F583222430F582E43400F583E0FAA3E0C39DEC6480F8EA64809822F583E4F0E51875F040E2
:40088000A42275F01EA4248AF582E43400F58322E0FEA3E0FF900088E0FCA3E0FDC3EF9DEC6480F8EE64809822E50825E024C6F582E43400F583222432F582E43400F5839B
:4008C000222430F582E43400F58322243FF582E43400F583222410F582E43400222400F582E4340022E0FEA3E0FF900192E02FF0900191E03EF00517222433F582E434003D
:4009000022E51775F002020528E0FEA3E0FFC3E49FFFE49EFE22E0FCE412027FE4FBFA79C8784202015F243CF582E4340022900088EEF0A3EFF022E0FCA3E0FDEC22243DBD
:40094000F582E4340022243EF582E4340022E0FCA3E0FDC3EF9DFFEE9C22900087E0FF900085E0229000D4E0FFE509C39F22C0E0C0F0C083C082C0D075D000C000C001C0B0
:4009800002C003C004C005C006C007E5E430E455E5E420E10241A585E31D751B01E51DB4151A2448121B25E0F5E37449251DF582E43401F583E0900170F041A5E51DB4167D
:4009C00005900170801AE51DC394285005121B21800EE51DC39480500241A5121B2DF583E0F5E341A5E5E430E22FE51BB40105751B008021E51DC39428500B7448251DF560
:400A000082E43401800AE51DC394804008121B2DF583E0F5E3051D41A5E5E420E10241A5E51DC3940F5005121B214190E51D640F7056121B21E5E3F0E51130E0047F008006
:400A4000027F01EF64017038121B21E0F510431101121B46E51020E20920E40620E30330E505751208803CE51030E0057512028032E51030E1057512048028121B438023F2
:400A8000121B21E510F0801BE51DB47E08900147E5E3F0800EE51DB47F09900146E5E3F0121517051D75E2C0D007D006D005D004D003D002D001D000D0D0D082D083D0F029
:400AC000D0E0329000E2E064AA60026175120F41600261759000E3120EBF9000E5120F189000E6120EF29000E7E09000D5F09000E8E09000D6F09000E9E09000D7F09000C0
:400B0000EAE0FF30E0047E0180027E009000E1EEF0EF30E1047F0180027F009000E0EFF09000EAE0FF30E2047E0180027E009000DFEEF0EF30E3047F0180027F009000DE06
:400B4000EFF09000EBE0540F9000D8F09000ECE09000D9F09000EDE09000DAF09000EEE0FEA3E09000DB120EC69000F0E0547F9000DDF0804F9000CEE4F0A3740CF0A37429
:400B800003F0A3F0A37401F0A37403F09000D57408F0A37464F0A3F0E49000E1F09000E004F0E49000DFF09000DEF09000D87403F0A37421F0A37410F0A3E4F0A3740CF0EC
:400BC000A3741EF09000D3E0FF9000D2E02F9000D4F0227F647E00121C7B12000E121A9F1212C5121C9C1210001207DEEF60FAE5126401600BE51264026005E512B4040263
:400C000081A5121C0F12100012062EE5086003121610E50B700F1213F7E5086005120D9A8003121800E50A600281B0E50B600281B0D3E5169400E51594004008E5161516BB
:400C400070021515121974E51130E1047F0180027F00EF60289000E1E0B4012190007CE070189000DAE0FF0513E513C39F400EE4F5137514017512028003E4F513E51264C9
:400C800008702DE5C830E7FB53C87C43F90453F9F71218C5E5126401600BE51264026005E512B40405120F5661E043F908121000850A08850B0961E9E5087006900085E09A
:400CC00004F012095A6F704BE508601D120882C083C082900084E0D082D0831208271208904006900086E014F01208A9C083C08275F01E12080D120886C083C082900084E7
:400D0000E0D082D08312082712094ED082D083F0A3EFF01208351208B7E0FEA3E0FFE508120882C083C082900084E0FDD082D083120827EEF0A3EFF01208351208B7E0FEAA
:400D4000A3E0FF1208A9EE8FF01204C7E5086012120882ED1209031208904006900086E004F012095AFEC39F400E1208A91208301208C1ECF0A3EDF0E508B4011CEEC39F8F
:400D80004006900085E014F0900087E0FF900084E004F0C39F4002E4F022E4FF9000E1E064017029E51130E2047E0180027E00EE700C12082D12085F401D7F01801990008F
:400DC000DB12083012085F400E7F01800A12082D12085F40027F019000E0E0B40113EFB4010F900087E0FE900086E0C39E5002E4FFEF64017036120835120926F5837401B8
:400E0000F01208351208CBE0702012083512093EF583E004FFF09000D0E0FEEFD39E40591208351208CB7401801480431208351208CBE07012120835120926F583E4F01270
:400E4000083512093E802E120835120946F583E004FFF09000D1E0FEEFD39E401C120835120926F583E4F01208351208CBE4F0120835120946F583E4F0229000F174A5F0AC
:400E8000900132745AF078F27C007D017B017A0179717E007F2012040478127C017D017B017A0079007E007F1012040478227C017A0079407D017B017E007F10020404E0DF
:400EC000FEA3E09000CE7C002400FFEC3EF0A3EFF0227E007FE27B52E4FDFC22FDECF0EDA3F09000D0E0540FC454F0FFA3E0540F4F22E0FF5438131313541F9000D2F0EF59
:400F00005407A3F022F09000D2E0540733333354F8FFA3E054074F22E0FF54F0C4540F9000D0F0EF540FA3F022FDECF0EDA3F09000DDE0547F22F583E4F09000CDE004F028
:400F400022900133E0645522EF4E900150F022EF4E9000EAF022900149120EBF90014B120F1890014C120EF290014DE09000D5F090014EE09000D6F090014FE09000D7F0DB
:400F8000900150E0FF30E0047E0180027E009000E1EEF0EF30E1047F0180027F009000E0EFF0900150E0FF30E2047E0180027E009000DFEEF0EF30E3047F0180027F009002
:400FC00000DEEFF0900151E09000D8F0900152E09000D9F0900153E09000DAF0900154E0FEA3E07C002400FFEC3E9000DBF0A3EFF0900156E09000DDF022121BB90215971A
:40100000E50A602224FE600F1460111460132403701775C102801275C101800D75C108800875C110800375C104E50BB41000400201C190103825E073015801600168017001
:4010400001780180018801900198019D01A201A701AC01B101B601BB75CDFF75CCFF806175CDFF75CCFE805975CDFF75CCFC805175CDFF75CCF8804975CDFF75CCF0804188
:4010800075CDFF75CCE0803975CDFF75CCC0803175CDFF75CC80802975CDFF802175CDFE801C75CDFC801775CDF8801275CDF0800D75CDE0800875CDC0800375CD80E4F58F
:4010C000CC1219DC1219D2E0FEA3E0F5CEEEF5CF43C80F22120F569000E274AAF09001337455F09000CEE0FCA3E09000E3120EDC9000E5120F059000E6F09000D5E0900098
:40110000E7F09000D6E09000E8F09000D7E09000E9F09000E1E0B401047F0180027F009000EAEFF0E0FF9000E0E0B401047E0280027E00120F4FE0FF9000DFE0B401047E59
:401140000480027E00120F4FE0FF9000DEE0B401047E0880027E00120F4F9000D8E0540F9000EBF09000D9E09000ECF09000DAE09000EDF09000DBE0FCA3E09000EE120F34
:40118000299000F0F0229000CEE0FCA3E0900149120EDC90014B120F0590014CF09000D5E090014DF09000D6E090014EF09000D7E090014FF09000E1E0B401047F018002C7
:4011C0007F00900150EFF0E0FF9000E0E0B401047E0280027E00120F48E0FF9000DFE0B401047E0480027E00120F48E0FF9000DEE0B401047E0880027E00120F489000D8D0
:40120000E0900151F09000D9E0900152F09000DAE0900153F09000DBE0FCA3E0900154120F29900156F022E4F50AE4F50B1219DC1219D2E4F0A37464F09001911204F70097
:40124000000000E4F51A121000E5C830E7FB53C87D1219E91219C5EEF0A3EFF0900191E0F8A3E0F9A3E0FAA3E0FB1219C5E0FEA3E0FFE4FDEB2FFFEA3EFEED39FDEC38FC7A
:401280009001911204EB051AE51AC3940540B7E47B05FAF9F8900191E0FCA3E0FDA3E0FEA3E0FF121A5B1219C5EEF0A3EFF0050BE50BC394085002412D050AE50AC394027D
:4012C0005002412A22751101121C08E4F5A8F5E812000612000712000812001E121C68D2AF120FFA121921E512B40406120AC3121186E51264016009E5126402600312180F
:4013000068E51130E1047F0180027F00EF701312135E1216EAE4900159F0A3F0A3F0A3F08003121BE7121AE09000DDE0900156F0E51264017006121C8D121BE712167EE449
:40134000F5125311FE121C08E514B4010A431104E511F0E4F514225311FB121C0822121227E4F518E4F517E5181219FBE517120528E0FCA3E0FDE412027A121A0CAB0FAA1E
:401380000EA90DA80C7F007E407D1C7C4612015F121A0CE4FBFA79C87842120056121A0C7F007EFF7D7F7C47AB0FAA0EA90DA80C1201FC600E400C750F00750EFF750D7F98
:4013C000750C47AF0FAE0EAD0DAC0C1202B3E5181219DEF58375F002E517120528EEF0A3EFF00517E5176408600261670518E51864026002616422E4900191F0A3F0E50805
:40140000603F9000D2E0F5179000D4E0FFE517C39F501D120835120855C083C08212083512083CE0D082D0831208271208E580D89000D3E0FD7C00900191E0FEA3E0FF80EE
:4014400020E4F5171208351208551209011208E5E517B408EF900191E0FEA3E0FF7C007D081204911208351208B7EEF0A3EFF09000E0E0B40103020CB81208351208B71232
:40148000080A1208C1EEF0A3EFF022787FE4F6D8FD75811D0214D2020BD3E493A3F8E493A34003F68001F208DFF48029E493A3F85407240CC8C333C4540F4420C88340046B
:4014C000F456800146F6DFE4800B0102040810204080901C54E47E019360BCA3FF543F30E509541FFEE493A360010ECF54C025E060A840B8E493A3FAE493A3F8E493A3C849
:40150000C582C8CAC583CAF0A3C8C582C8CAC583CADFE9DEE780BE900146E024FE601F14602D14603B14604414604D24F6605D240F70639001447400F0A37480F02290013E
:4015400047E075F040A42410F582E434008033900147E075F040A42400F582E434008022121B4D24F2F582E434008016121B4D2412F582E43401800A121B4D2471F582E446
:401580003401AF82900144F0A3EFF0229001447401F0A37434F0227515017516F4E49000CAF0A3F0A3F0F518E4F51712087B1208D5F583E517120827E4F0A312087A12080C
:4015C000DDF583120901E4F0A312087A12083CE4F00517E517B408D312087B12093E120877120946120877120926120877243FF582E434001208771208C1E4F0A312087AF2
:401600001208B7E4F0A3F00518E5186402709922120964501C1208352434F582E43400F583E5822509120849E509F06050AF09C17A1209644047120835120855C083C0826C
:401640001208351208F9F583E5822F120849E0D082D08375F00212080712081C120898501C9000D4E0FF1208351208F9F583E5822F120849E509F0EF14FF12175622E4902B
:401680000084F0A3F0A3F0F518E5181208ABE4F0A3F0F517E518120882120901E4F0A3F00517E517B40FED0518E518B402DB9000D8E0900087F0E51130E2047F0180027FE3
:4016C00000EF70059000CE80039000DBE0FEA3E0FF12092E9000D9E0FD7C0012042A12092E7D6412049112092E22121C9C1210001207DEEF60FA1208351208D512080012BD
:4017000008DD120823EE8FF01204C7900191E0B404221208351208DD120823C083C082E0FEA3E0FF7C007D0512043CD082D083EEF0A3EFF0121C0FE50A700FE50B700B90FE
:401740000191E004F0C39405500B121000850A08850B09C1F0228F17E517C394014062120835120855C083C0821208351208F9120843E0D082D08375F0021208071208550D
:40178000C083C08212083512083CE0FDD082D083120827E0FAA3E0D39FEE12086F40221208351208F9120843E0FF12083512083CEFF01208351208F9120843EDF01517E1C9
:4017C0005822900191EEF0A3EFF0900191A3E0F5CA900191121B9FC333CE33CED8F9121BADCEC313CE13D8F9121B8743CD2075D101E5D130E2FB221210D4120ED20217C202
:40180000900030E0FEA3E0FFC3EE64809480500312090ED3EF94CCEE64809480403CD3EF9499EE6480948140179000CCE004F0D3940340119000DEE0B4010A7512028005AC
:40184000E49000CCF09000CBE004F0D3940340177403F09000CA74C8F022E49000CBF09000CAE0600214F0225311FD900158E511F09000E2E064AA704B120F417046900055
:40188000F1E064A5703E900132E0645A7036431102900158E511F078717C017D017B017A0079F27E007F2012040478007C007A017912120EB478407C007D017B017A017908
:4018C00022120EB822E510540CFFBF0C067512015310F3E51030E2031217F7E51030E403121C3FE51030E303121C27E51030E503121A15E51264016017E51030E005751214
:4019000002800DE51030E1057512048003E4F512E5127003121B43E4F510900157E510F022E4900191F0F50AE4F50B1219DC1219D2E4F0A374C8F0050BE50BB408ED050A2A
:40194000E50AB402E3121C9C900191E0C3940A50221210001207DEEF60FA121C0FE50A700AE50B7006900191E004F0850A08850B0980D522E4F51990007FE0B4010375190E
:4019800001E51920E003D38001C3928090007012093790015DF0EDA3F0A3E519F0E4F51812087B1208C1E0FEA3E0FFE51825E02480F582E43400F583EEF0A3EFF00518E5EB
:4019C00018B402DC22E50A75F040A42410F582E43400F583E50B75F002020528E50AC454F02471F582E434012243F904AFD6EFFEADD57C00E42DFFEC3EFE2275F040A4246D
:401A000010F582E43400F58375F002228F0F8E0E8D0D8C0C22E49000F1F0900132F09000CDF09000CDE0FFC39420500D74F22FF582E43400120F3680E9E49000CDF090006E
:401A4000CDE0FFC39420500D74122FF582E43401120F3680E9120ED20217C2C2D5E830E70FB2D5E4C39BFBE49AFAE499F9E498F8EC30E717B2D5121A9112059CE4C39BFBFB
:401A8000E49AFAE499F9E498F8800312059C30D50DE4C39FFFE49EFEE49DFDE49CFC22E4F51A7448251AF582E43401F583E4F0051AE51AB428EC121CA6120AC3121186E4AB
:401AC000900160F0A3742BF0E4F510900157E510F0751101A3E511F0E4F512F514F5132290018FE0FEA3E0FFC3900180E09FFF90017FE09EFEC3648094805007C3E49FFF3A
:401B0000E49EFE9000DDE0FD547FFCFBD3EF9B7480F86E985005ED4480F0229000DDECF0227448251DF582E43401F58322E51D2480FFE434FFFE900144E0FCA3E02FF58283
:401B4000EC3E225311FE900158E511F022900147E0C454F022900191EEF0A3EFF0900191A3E0F5CA900191121B9FC333CE33CED8F9121BADCEC313CE13D8F9121B8775D150
:401B800002E5D130E2FB22F5CCEB14FF5407C43354E042CCEF54F8131313541FF5CD22E05403A3F5CB7E00ED543F78022242CBEC5407FEED54C0780622E4F518E4F517E533
:401BC000181219DEF583E5171219D6E4F0A3F00517E517B408E90518E518B402DFE4F5C343F50843C3042290017FE0FCA3E0FDEC900159F0EDA3F090018FE0FCA3E0FDEC5A
:401C000090015BF0EDA3F022900158E511F022050AE50AC39402400EE4F50A050BE50B94084003E4F50B229000E2E0B4AA05120F4160031210D4120E7A120ED20217C27E73
:401C4000007F527D007B017A0079E2120534120ED20217C250013450524F582053554D2056302E343320200075E1B475E29043A84043B84043E80443F80422E4FDFCC3EDDB
:401C80009FEC9E50070DBD00010C80F222120F561210D7120E7A120ED20217C2E4F50AF50BF508F50922120ED2021B550000000000000000000000000000000000000000FE
:40400000002B0073000000000000000000000000000000000000000000000000000000000000000000000000000000000000000000000000000000000000000000000000E2
:00000001FF
