:40000000021897020009222222323202000AE4F5A975AAFF75AB0375801F2202002EE4F5FA75F91843F90443E8022202002F3232323232020030320000000002003100005B
:4000400000000002003200000000000200360000000000020654EC4D6011E8497017ED33EC3304600DE4FCFFFEFD22E933E8330470F802031F1202EA58046009E4CC2481CB
:400080005006285009020329284003020326C0E0EB4A7044B98006D0E0FB020315EF4E701CBD8008EBFFEAFEE9FD80EBE98DF0A4FEE5F002013FE9CDF9EAFEEBFFEF89F0DF
:4000C000A4FCE5F0CE89F0A42EFFE435F0CD89F0A42DFEE435F08067EF4E7005BD80D780C3EF8BF0A4ACF0EE8BF0A42CFCE435F0F8EF8AF0A42CE5F038FCE433CB8DF0A437
:400100002CFCE5F03BF8EE8AF0A42CFCE5F038F8E433CF89F0A42CFCE5F038CF3400CE89F0A42FFFE5F03EFEE433C98DF0A42EFEE5F039CD8AF0A42FFFE5F03EFEE43DFD6E
:4001400033D0E0FB50070BBB000F020329EC2CFCEF33FFEE33FEED33FD020301020329EC5D046005E85904700302031F1202EA580460F6EC4860F2EC7004FDFEFF22C8603A
:40018000DB2481C85009C398600250060203269850CAF582E9294B4A7005AB8202031575F0007C1A7880C3EF9BEE9AED99400DC3EF9BFFEE9AFEED99FDE842F0DC23ACF02F
:4001C000D0E0FFD0E0FED0E0FDAB8220E7101BEB60BAEC2CFCEF33FFEE33FEED33FD020301E803F830E705C0F075F000EF2FFFEE33FEED33FD40B830E7C280AA74F8CC6416
:4002000080CCC86480C8F58204604FC3EB9FF5F0EA9E42F0E99D42F0E89C45F0603C501DE5825FFFE582D313CB5BCBF42B5582FB50280ABA002409B9002008801DE5825BD1
:40024000FBE582D313CF5FCFF4C3132F5582FF50090EBE00050DBD00010CC3EB9FF5F0EA9E42F0E99D42F0E89C45F06007CC4820E701B3EC2275F020800E75F01080057546
:40028000F0087D007E007F003392D530D5031204DDEC334010EF33FFEE33FEED33FDEC33FCD5F0ED22E5F0247EA2D513CC92E7CDCEFF22EDD2E7CD33EC3392D52481400663
:4002C000E4FFFEFDFC22FCE4CFCECDCC24E0501174FF80EDC3CC13CCCD13CDCE13CECF13CF0470F030D5DE0204DDE9D2E7C933E833F892D5EDD2E7CD33EC33FC5002B2D550
:4003000022EC30E7100FBF000C0EBE00080DBD00040BEB6014A2D5EB13FCED92E7FD2274FFFCFDFEFF22E480F8A2D574FF13FC7D80E480EFE709F608DFFA8046E709F20805
:40034000DFFA803E88828C83E709F0A3DFFA8032E309F608DFFA8078E309F208DFFA807088828C83E309F0A3DFFA806489828A83E0A3F608DFFA805889828A83E0A3F20821
:40038000DFFA804C80D280FA80C680D4806980F28033801080A680EA809A80A880DA80E280CA803389828A83ECFAE493A3C8C582C8CCC583CCF0A3C8C582C8CCC583CCDF11
:4003C000E9DEE7800D89828A83E493A3F608DFF9ECFAA9F0EDFB2289828A83ECFAE0A3C8C582C8CCC583CCF0A3C8C582C8CCC583CCDFEADEE880DB89828A83E493A3F20899
:40040000DFF980CC88F0EF60010E4E60C388F0ED2402B4040050B9F582EB2402B4040050AF232345822390038473EF8DF0A4A8F0CF8CF0A428CE8DF0A42EFE22BC000BBE8B
:400440000029EF8DF084FFADF022E4CCF875F008EF2FFFEE33FEEC33FCEE9DEC984005FCEE9DFE0FD5F0E9E4CEFD22EDF8F5F0EE8420D21CFEADF075F008EF2FFFED33FD46
:400480004007985006D5F0F222C398FD0FD5F0EA22C2D5EC30E709B2D5E4C39DFDE49CFCEE30E715B2D5E4C39FFFE49EFE12043CC3E49DFDE49CFC800312043C30D507C3F6
:4004C000E49FFFE49EFE22C5F0F8A3E028F0C5F0F8E582158270021583E038F022C3E49FFFE49EFEE49DFDE49CFC22ECF0A3EDF0A3EEF0A3EFF022A8828583F0D083D08288
:4005000012050E12050E12050E12050EE473E493A3C583C5F0C583C8C582C8F0A3C583C5F0C583C8C582C822A42582F582E5F03583F58322D083D082F8E493701274019342
:40054000700DA3A393F8740193F5828883E4737402936860EFA3A3A380DFEF4E6012EF60010EEDBB010B89828A83F0A3DFFCDEFA2289F05007F709DFFCA9F022BBFEFCF3F5
:4005800009DFFCA9F02275F008758200EF2FFFEE33FECD33CDCC33CCC58233C5829BED9AEC99E58298400CF582EE9BFEED9AFDEC99FC0FD5F0D6E4CEFBE4CDFAE4CCF9A85B
:4005C0008222B800C1B90059BA002DEC8BF084CFCECDFCE5F0CBF97818EF2FFFEE33FEED33FDEC33FCEB33FB10D703994004EB99FB0FD8E5E4F9FA227818EF2FFFEE33FE07
:40060000ED33FDEC33FCC933C910D7059BE99A4007EC9BFCE99AF90FD8E0E4C9FAE4CCFB2275F010EF2FFFEE33FEED33FDCC33CCC833C810D7079BEC9AE899400AED9BFD77
:40064000EC9AFCE899F80FD5F0DAE4CDFBE4CCFAE4C8F922C0E0C0F0C083C082C0D075D000C000C001C002C003C004C005C006C007E5E430E455E5E420E102E1C785E31AC6
:40068000751701E51AB4151A245A121E2FE0F5E3745B251AF582E43403F583E0900382F0E1C7E51AB41605900382801AE51AC394285005121E2B800EE51AC394805002E14F
:4006C000C7121E37F583E0F5E3E1C7E5E430E229E517B40105751700801BE51AC394285005121E5F800AE51AC394804008121E37F583E0F5E3051AE1C7E5E420E102E1C737
:40070000E51AC3940F5005121E5FE1C0741AD3951A5027E51A941F5021121E2BE5E3F0E51A641C6002E1C5121E2BE0D394FA5002E1C5121E2B74FAF0E1C5E51A640F70595D
:40074000121E2BE5E3F0E51130E0047F0080027F01EF6401703B121E2BE0F510431101121E50E51020E20C20E40920E30620E50330E705751208804DE51030E0057512029B
:400780008043E51030E1057512048039121E4D8034121E2BE510F0802CE51AB47E05900359801FE51AB47F0B900358E5E3F01216A38012E51AC39480400B751801121E37F6
:4007C000F583E5E3F0051A75E2C0D007D006D005D004D003D002D001D000D0D0D082D083D0F0D0E032E075F002A42400F582E5F03400F58322900277E0FCA3E0FDEC220074
:40080000E49003A3F09002DAE0FF9003A4E4F0A3EFF01209EE120A8E1209DCE0FEA3E0D394E0EE942E40101209EE120A8E1209DC742EF0A374E0F01209EE120A961209B9D2
:40084000120A8E1209DCE0FCA3E0C39FFFEC9EAD07FC9002E4E0B4011EE508701AD374FC9DEC6480F874FF648098500BC3EC648094805003E4FCFDC3EC64809480500D90E0
:4008800003A37401F0C3E49DFDE49CFCAB05AA04EAF5BBEBF5BA1209EE120A961209DC120AF0F5BDEDF5BC43B90C43B901E5B930E7FB53B971AFB5EFFEADB47C00E42DFF60
:4008C000EC3EFE1209CFEEF0A3EFF09003A3E06401700E1209CF120AC21209CFEEF0A3EFF0E508700221B8120A0AE0FEA3E0FFC39003A5E09FEE6480F89003A4E0648098E6
:40090000503F1209CFC083C082E0FEA3E0FFC006C0079002DB120ACFC004C005C006C007120A0A120AF012027AD003D002D001D0001200561202B3C3D0E09FFFD0E09E21A9
:40094000B09003A4120AC2120A0AE0FCA3E0C39FEE6480F8EC648098E50875F040503F1209D4C083C082E0FEA3E0FFC006C0079002DC120ACFC004C005C006C007120A0A82
:40098000120AF012027AD003D002D001D0001200561202B3C3D0E09FFFD0E09E80121209D4C083C082E0FEA3E0FF120A0A120B07D082D083F0A3EFF022F58375F002E50913
:4009C00012052875F040E0FEA3E0FFE508A422E50875F040A42425F582E43402F583E50975F0020205289002D3E0FCA3E0FDE50875F040A4222439F582E43402F583E5820E
:400A0000251BF582E43583F58322E50925E02425F582E43402F583222435F582E43402F583E0FAA3E0C39DEC6480F8EA64809822F583E4F0E51C75F040A42275F01EA424F0
:400A40008FF582E43402F58322E0FEA3E0FF90028DE0FCA3E0FDC3EF9DEC6480F8EE648098222437F582E43402F58322E50825E024CBF582E43402F583222435F582E434C4
:400A800002F583222444F582E43402F583222415F582E43402222405F582E4340222E0FEA3E0FF9003A4E02FF09003A3E03EF0051B222438F582E4340222E51B75F00202AB
:400AC0000528E0FEA3E0FFC3E49FFFE49EFE22E0FCE412027FE4FBFA79C8784202015F2441F582E434022290028DEEF0A3EFF022E0FCA3E0FDEC222442F582E43402222499
:400B000043F582E4340222E0FCA3E0FDC3EF9DFFEE9C2290028CE0FF90028AE0229002D9E0FFE509C39F229002EEE064AA600281181210CF600281189002EF1210459002C3
:400B4000F1E01210D69002F1E0540F9002D6F09002F2E01210B89002F2E054079002D8F09002F3E09002DAF09002F4E09002DBF09002F5E09002DCF09002F6E030E0047FF3
:400B80000180027F009002E61210E030E1047F0180027F009002E51210E030E2047F0180027F009002E41210E030E3047F0180027F009002E3EFF09002F7E0540F9002DD74
:400BC000F09002F8E09002DEF09002F9E09002DFF09002FAE0FEA3E09002E012104C9002FCE0547F9002E2F09002F6E030E4047F0180027F009002E7EFF09002FD12106291
:400C00009002FFE09002EAF090030012108B900302E09002EDF080699002D3E4F0A3740CF0A37403F0A3F0A37401F0A37403F09002DA7408F0A37464F0A3F0E49002E6F0AD
:400C40009002E504F0E49002E4F09002E3F09002DD7403F0A37421F0A37410F0A3E4F0A3740CF0A3741EF0E49002E7F0A3F0A37414F0A37496F0A3E4F0A37403F0A3740F57
:400C8000F09002D8E0FF9002D7E02F9002D9F0229001F4E0F8A3E0F9A3E0FAA3E0FB900237E0FEA3E0FFEE3395E0FDFCEB2FFFEA3EFEE93DFDE83CFC9001F41204EB9001E1
:400CC000FFE004F0C3940A5002A187E0FBE4FAF9F89001F4E0FCA3E0FDA3E0FEA3E0FF121D63900203EEF0A3EFF0E49001FFF09001F41204F700000000900202E0D3940060
:400D00004003E014F09002EAE0FF900200E0C39F403BA31207E5E0FCA3E0FDC3900204E09DFD900203E09CFCC3648094805007C3E49DFDE49CFCD39002E9E09D9002E8E011
:400D40009C50109002EDE0900202F08006900200E004F0900203E0FCA3E0FD9002011207E5ECF0A3EDF0900201E004F0C39F4002E4F0900202E09001F8F09002031207F858
:400D80009001F9F0EDA3F01207F59001FBF0EDA3F0900202E0D394004026900277E0FEA3E0FFD39400EE6480948040149002EBE0FCA3E0FDEF9DFFEE9C900277F0A3EFF07B
:400DC0001207F59001FDF0EDA3F02212146B9002EE74AAF09003457455F09002D3E09002EFF09002D3A3E09002F012109C9002F11210759002F2F09002DAE09002F3F09058
:400E000002DBE09002F4F09002DCE09002F5F09002E6E0B401047F0180027F009002F6EFF0E0FF9002E5E0B401047E0280027E001210B1E0FF9002E4E0B401047E0480028D
:400E40007E001210B1E0FF9002E3E0B401047E0880027E001210B19002DDE0540F9002F7F09002DEE09002F8F09002DFE09002F9F09002E0E09002FAF09002E0A3E09002C5
:400E8000FBF09002E2E0547F9002FCF09002F6E0FF9002E7E0B401047E1080027E001210B19002E8E09002FDF09002E8A3E09002FEF09002EAE09002FFF09002EBE09003A5
:400EC00000F09002EBA3E0900301F09002EDE0900302F0229002D3E090035BF09002D3A3E090035C12109C90035D12107590035EF09002DAE090035FF09002DBE0900360EA
:400F0000F09002DCE0900361F09002E6E0B401047F0180027F00900362EFF0E0FF9002E5E0B401047E0280027E001210AAE0FF9002E4E0B401047E0480027E001210AAE0D2
:400F4000FF9002E3E0B401047E0880027E001210AA9002DDE0900363F09002DEE0900364F09002DFE0900365F09002E0E0900366F09002E0A3E0900367F09002E2E0547F2C
:400F80009003681210E79002E7E0B401047E1080027E001210AA9002E8E0900374F09002E8A3E0900375F09002EAE0900376F09002EBE0900377F09002EBA3E0900378F0D4
:400FC0009002EDE0900379F0229003A3EEF0A3EFF09003A3A3E0F5CA9003A3121EB3C333CE33CED8F9121EC1CEC313CE13D8F9121E9B43CD2075D101E5D130E2FB22000049
:4010000090030374A5F0900344745AF078047C037D017B017A0379837E007F2012040478247C037D017B017A0279057E007F1012040478347C037A0279457D017B017E00C4
:401040007F10020404E0FEA3E09002D37C002400FFEC3EF0A3EFF0227E027FEE7B58E4FDFC22E0FEA3E09002E87C002400FFEC3EF0A3EFF022540F4FF09002D7E054073344
:40108000333354F8FFA3E054074F22E0FEA3E02400FFEC3E9002EBF0A3EFF022F09002D5E0540FC454F0FFA3E022EF4E900362F022EF4E9002F6F0225438131313541F9048
:4010C00002D7F022F583E4F09002D2E004F022900345E064552254F0C4540F9002D5F022EFF09002F6E022F0900362E0FF227F647E00121FE212000E121DA712153D121F9A
:40110000F4121395121F52EF60FAE5126401600BE51264026005E512B4040221C0121F72121395120800E508600312199CE50B700F1215F6E50860051212B58003121BB66F
:40114000E50A600221CBE50B600221CBD3E5169400E51594004008E516151670021515121C7BE51130E1047F0180027F00EF60289002E6E0B40121900281E070189002DF34
:40118000E0FF0513E513C39F400EE4F5137514017512028003E4F513E5126408702DE5C830E7FB53C87C43F90453F9F7121B4EE5126401600BE51264026005E512B4040591
:4011C00012146B01FB43F908121395850A08850B092104E508700690028AE004F0120B136F704BE508601D120A3BC083C082900289E0D082D0831209E0120A494006900244
:401200008BE014F0120A6CC083C08275F01E1209C6120A3FC083C082900289E0D082D0831209E0120B07D082D083F0A3EFF01209EE120A62E0FEA3E0FFE508120A3BC083AA
:40124000C082900289E0FDD082D0831209E0EEF0A3EFF01209EE120A62E0FEA3E0FF120A6CEE8FF01204C7E5086012120A3BED120ABC120A49400690028BE004F0120B1334
:40128000FEC39F400E120A6C1209E9120A7AECF0A3EDF0E508B4011CEEC39F400690028AE014F090028CE0FF900289E004F0C39F4002E4F022E4FF9002E6E064017029E50A
:4012C0001130E2047E0180027E00EE700C1209E6120A18401D7F0180199002E01209E9120A18400E7F01800A1209E6120A1840027F019002E5E0B40113EFB4010F90028C4A
:40130000E0FE90028BE0C39E5002E4FFEF640170361209EE120ADFF5837401F01209EE120A84E070201209EE120AF7F583E004FFF09002D5E0FEEFD39E40591209EE120A7E
:40134000847401801480431209EE120A84E070121209EE120ADFF583E4F01209EE120AF7802E1209EE120AFFF583E004FFF09002D6E0FEEFD39E401C1209EE120ADFF5830B
:40138000E4F01209EE120A84E4F01209EE120AFFF583E4F022E50A602224FE600F1460111460132403701775C102801275C101800D75C108800875C110800375C104E50B47
:4013C000B41000400281569013CD25E07361ED61F561FD8105810D8115811D8125812D81328137813C81418146814B815075CDFF75CCFF806175CDFF75CCFE805975CDFF40
:4014000075CCFC805175CDFF75CCF8804975CDFF75CCF0804175CDFF75CCE0803975CDFF75CCC0803175CDFF75CC80802975CDFF802175CDFE801C75CDFC801775CDF88022
:401440001275CDF0800D75CDE0800875CDC0800375CD80E4F5CCE50A121CE6121CDAE0FEA3E0F5CEEEF5CF43C80F2290035B12104590035DE0FF1210D6EF540FA3F0900354
:401480005EE0FF1210B8EF5407A3F090035FE09002DAF0900360E09002DBF0900361E09002DC1210E730E0047E0180027E009002E6EEF0EF30E1047F0180027F009002E5AA
:4014C000EF1210E730E2047E0180027E009002E4EEF0EF30E3047F0180027F009002E3EFF0900363E09002DDF0900364E09002DEF0900365E09002DFF0900366E0FEA3E031
:401500009002E0121069900368E09002E2F0900362E030E4047F0180027F009002E7EFF0900374121062900376E09002EAF090037712108B900379E09002EDF0227511010E
:40154000121F4BE4F5A8F5E812000612000712000812001E121FCFD2AF12200FE512B40406120B27120ED4E51264016009E51264026003121C1EE51130E1047F0180027F0A
:4015800000EF7013121800121A76E490036BF0A3F0A3F0A3F08003121F2A121DEA9002E2E0900368F0E51264017006122000121F2AE4F5125311FE121F4BE514B4010B4308
:4015C0001104E511F0E4F51480065311FB121F4B121A0A90036BE07004A3E0601590036DE07004A3E0600B9002E2E030E704E4F51D22751D0222E49003A3F0A3F0E50860B9
:40160000589002D7E0F51B9002D9E0FFE51BC39F501D1209EE120A0EC083C0821209EE1209F5E0D082D0831209E0120A9E80D89002D8E0FD7C009003A3E0FEA3E0FF12040E
:40164000911209EE120A62EEF0A3EFF09002E7E064017033120C90802EE4F51B1209EE120A0E120ABA120A9EE51BB408EF9003A3E0FEA3E0FF7C007D081204911209EE127A
:401680000A62EEF0A3EFF09002E5E0B401030211D31209EE120A621209C3120A7AEEF0A3EFF022900358E0FF12053416CD0116D90216EA0316FB0417070517130617280751
:4016C00017341016FB841707850000173E9003567402F0A37485F08065900359E075F040A42415F582E434028033900359E075F040A42405F582E434028022121E57240490
:40170000F582E434038016121E572424F582E43403800A121E572483F582E43403AD82900356F0A3EDF080169003567401F0A374F8F0800A9003567403F0A37446F0EFC392
:401740009480400475180122E4F51822E4F50AE4F50BE50A121CE6121CDAE4F0A3744BF09003A31204F700000000E4F51E121395E5C830E7FB53C87D121CF1121CCDEEF013
:40178000A3EFF09003A3E0F8A3E0F9A3E0FAA3E0FB121CCDE0FEA3E0FFE4FDEB2FFFEA3EFEED39FDEC38FC9003A31204EB051EE51EC3940540B7E47B05FAF9F89003A3E04F
:4017C000FCA3E0FDA3E0FEA3E0FF121D63121CCDEEF0A3EFF0050BE50BC394085002E152050AE50AC394025002E14F2250034650524F582053554D2056302E35302020002E
:4018000012174CE4F51CE4F51BE51C121D03E51B120528E0FCA3E0FDE412027A121D14AB0FAA0EA90DA80C7F007E407D1C7C4612015F121D14E4FBFA799678421200561282
:401840001D147F007EFF7D7F7C47AB0FAA0EA90DA80C1201FC600E400C750F00750EFF750D7F750C47AF0FAE0EAD0DAC0C1202B3121CE4F58375F002E51B120528EEF0A3A4
:40188000EFF0051BE51B640860020109051CE51C64026002010622787FE4F6D8FD75811F0218DE0210EEE493A3F8E493A34003F68001F208DFF48029E493A3F85407240C92
:4018C000C8C333C4540F4420C8834004F456800146F6DFE4800B01020408102040809017ECE47E019360BCA3FF543F30E509541FFEE493A360010ECF54C025E060A840B8E2
:40190000E493A3FAE493A3F8E493A3C8C582C8CAC583CAF0A3C8C582C8CAC583CADFE9DEE780BE7515017516F4E49002CFF0A3F0A3F0F51CE4F51B120A34120A8EF583E5E2
:401940001B1209E0E4F0A3120A33120A96F583120ABAE4F0A3120A331209F5E4F0051BE51BB408D3120A34120AF7120A30120AFF120A30120ADF120A302444F582E43402DC
:40198000120A30120A7AE4F0A3120A33120A62E4F0A3F0051CE51C6402709922120B1D501C1209EE2439F582E43402F583E5822509120A02E509F06050AF094106120B1D58
:4019C00040471209EE120A0EC083C0821209EE120AB2F583E5822F120A02E0D082D08375F0021209C01209D5120A51501C9002D9E0FF1209EE120AB2F583E5822F120A02C8
:401A0000E509F0EF14FF121AE222E4900289F0A3F0A3F0F51CE51C120A6EE4F0A3F0F51BE51C120A3B120ABAE4F0A3F0051BE51BB40FED051CE51CB402DB9002DDE0900275
:401A40008CF0E51130E2047F0180027F00EF70059002D380039002E0E0FEA3E0FF120AE79002DEE0FD7C0012042A120AE77D64120491120AE722121FF4121395121F52EF32
:401A800060FA1209EE120A8E1209B9120A961209DCEE8FF01204C79003A3E0B404221209EE120A961209DCC083C082E0FEA3E0FF7C007D0512043CD082D083EEF0A3EFF076
:401AC000121F72E50A700FE50B700B9003A3E004F0C39405500B121395850A08850B09417C228F1BE51BC3940140621209EE120A0EC083C0821209EE120AB21209FCE0D0E6
:401B000082D08375F0021209C0120A0EC083C0821209EE1209F5E0FDD082D0831209E0E0FAA3E0D39FEE120A2840221209EE120AB21209FCE0FF1209EE1209F5EFF0120906
:401B4000EE120AB21209FCEDF0151B41E422E510540CFFBF0C067512015310F3E51030E203122018E51030E403121FBAE51030E303121F8AE51030E503121D1DE51030E7C5
:401B800007C282121FA2D282E51264016017E51030E005751202800DE51030E1057512048003E4F512E5127003121E4DE4F510900369E510F022900235E0FEA3E0FFC3EE11
:401BC000648094805003120AC7D3EF94CCEE64809480403CD3EF9499EE6480948140179002D1E004F0D3940340119002E3E0B4010A7512028005E49002D1F09002D0E00475
:401C0000F0D3940340177403F09002CF74C8F022E49002D0F09002CFE0600214F0225311FD90036AE511F09002EEE064AA704B1210CF7046900303E064A5703E900344E0E6
:401C4000645A703643110290036AE511F078837C037D017B017A0379047E007F2012040478057C027A03792412103A78457C027D017B017A03793412103E22531DFE9002D0
:401C800084E0B40103431D01E51DD3940040028001D39280900275120AF090036FF0EDA3F0A3E51DF0E4F51C120A34120A7AE0FEA3E0FFE51C25E02485F582E43402F58389
:401CC000EEF0A3EFF0051CE51CB402DC22E50A75F040A42415F582E43402F583E50B75F002020528E51CC454F02483F582E434032243F904AFD6EFFEADD57C00E42DFFEC9E
:401D00003EFE2275F040A42415F582E43402F58375F002228F0F8E0E8D0D8C0C22E4900303F0900344F09002D2F09002D2E0FFC39420500D74042FF582E434031210C48068
:401D4000E9E49002D2F09002D2E0FFC39420500D74242FF582E434031210C480E9121058020FC9C2D5E830E70FB2D5E4C39BFBE49AFAE499F9E498F8EC30E717B2D5121D94
:401D8000991205C2E4C39BFBE49AFAE499F9E498F880031205C230D50DE4C39FFFE49EFEE49DFDE49CFC22E4F51E745A251EF582E43403F583E4F0051EE51EB428EC1220BD
:401DC00021120B27120ED4E4900372F0A37432F0E4F510900369E510F0751101A3E511F0E4F512F514F513F518229003A1E0FEA3E0FFC3900392E09FFF900391E09EFEC316
:401E0000648094805007C3E49FFFE49EFE9002E2E0FD547FFCFBD3EF9B7480F86E985005ED4480F0229002E2ECF022745A251AF582E43403F58322E51A2480FFE434FFFEAA
:401E4000900356E0FCA3E02FF582EC3E225311FE90036AE511F022900359E0C454F022745A251AF582E43403229003A3EEF0A3EFF09003A3A3E0F5CA9003A3121EB3C333ED
:401E8000CE33CED8F9121EC1CEC313CE13D8F9121E9B75D102E5D130E2FB22F5CCEB14FF5407C43354E042CCEF54F8131313541FF5CD22E05403A3F5CB7E00ED543F780213
:401EC0002242CBEC5407FEED54C0780622E49001FFF0A3F0A3F0A3F0A3F0A3F09001F41204F700000000E4F51F74F8251FF582E43401F583E4F0051FE51FB407EC22E4F5AA
:401F00001CE4F51B121CE4F583E51B121CDEE4F0A3F0051BE51BB408EB051CE51CB402E1E4F5C343F50843C30422900391E0FCA3E0FDEC90036BF0EDA3F09003A1E0FCA37F
:401F4000E0FDEC90036DF0EDA3F02290036AE511F022E5C820E7037F002253C87C121CF1E508121D03E509120528EEF0A3EFF07F0122050AE50AC39402400EE4F50A050B0D
:401F8000E50B94084003E4F50B229002EEE0B4AA051210CF6003120DCB121000121058020FC912146B120DCE90030374A5F0900344745AF0121058020FC97E007F587D00FD
:401FC0007B017A0279EE12055A121058020FC975E1B475E29043A84043B84043E80443F80422E4FDFCC3ED9FEC9E50070DBD00010C80F222E4F50AF50BF508F5092200005E
:4020000012146B120DCE121000121058020FC9121EFE121923021ECD120DCB121058020FC9121058021E690000000000000000000000000000000000000000000000000002
:4040000000320081000000000000000000000000000000000000000000000000000000000000000000000000000000000000000000000000000000000000000000000000CD
:00000001FF
